{
    "_format": "hh-sol-artifact-1",
    "contractName": "FloatingSaturnNFT",
    "sourceName": "contracts/FloatingSaturnNFT.sol",
    "abi": [
        {
            "inputs": [
                {
                    "internalType": "address payable",
                    "name": "withdrawalWallet_",
                    "type": "address"
                }
            ],
            "stateMutability": "payable",
            "type": "constructor"
        },
        {
            "anonymous": false,
            "inputs": [
                {
                    "indexed": true,
                    "internalType": "address",
                    "name": "owner",
                    "type": "address"
                },
                {
                    "indexed": true,
                    "internalType": "address",
                    "name": "approved",
                    "type": "address"
                },
                {
                    "indexed": true,
                    "internalType": "uint256",
                    "name": "tokenId",
                    "type": "uint256"
                }
            ],
            "name": "Approval",
            "type": "event"
        },
        {
            "anonymous": false,
            "inputs": [
                {
                    "indexed": true,
                    "internalType": "address",
                    "name": "owner",
                    "type": "address"
                },
                {
                    "indexed": true,
                    "internalType": "address",
                    "name": "operator",
                    "type": "address"
                },
                {
                    "indexed": false,
                    "internalType": "bool",
                    "name": "approved",
                    "type": "bool"
                }
            ],
            "name": "ApprovalForAll",
            "type": "event"
        },
        {
            "anonymous": false,
            "inputs": [
                {
                    "indexed": true,
                    "internalType": "address",
                    "name": "previousOwner",
                    "type": "address"
                },
                {
                    "indexed": true,
                    "internalType": "address",
                    "name": "newOwner",
                    "type": "address"
                }
            ],
            "name": "OwnershipTransferred",
            "type": "event"
        },
        {
            "anonymous": false,
            "inputs": [
                {
                    "indexed": true,
                    "internalType": "address",
                    "name": "from",
                    "type": "address"
                },
                {
                    "indexed": true,
                    "internalType": "address",
                    "name": "to",
                    "type": "address"
                },
                {
                    "indexed": true,
                    "internalType": "uint256",
                    "name": "tokenId",
                    "type": "uint256"
                }
            ],
            "name": "Transfer",
            "type": "event"
        },
        {
            "inputs": [
                {
                    "internalType": "address",
                    "name": "to",
                    "type": "address"
                },
                {
                    "internalType": "uint256",
                    "name": "tokenId",
                    "type": "uint256"
                }
            ],
            "name": "approve",
            "outputs": [],
            "stateMutability": "nonpayable",
            "type": "function"
        },
        {
            "inputs": [
                {
                    "internalType": "address",
                    "name": "owner",
                    "type": "address"
                }
            ],
            "name": "balanceOf",
            "outputs": [
                {
                    "internalType": "uint256",
                    "name": "",
                    "type": "uint256"
                }
            ],
            "stateMutability": "view",
            "type": "function"
        },
        {
            "inputs": [
                {
                    "internalType": "uint256",
                    "name": "tokenId",
                    "type": "uint256"
                }
            ],
            "name": "getApproved",
            "outputs": [
                {
                    "internalType": "address",
                    "name": "",
                    "type": "address"
                }
            ],
            "stateMutability": "view",
            "type": "function"
        },
        {
            "inputs": [
                {
                    "internalType": "address",
                    "name": "owner",
                    "type": "address"
                },
                {
                    "internalType": "address",
                    "name": "operator",
                    "type": "address"
                }
            ],
            "name": "isApprovedForAll",
            "outputs": [
                {
                    "internalType": "bool",
                    "name": "",
                    "type": "bool"
                }
            ],
            "stateMutability": "view",
            "type": "function"
        },
        {
            "inputs": [],
            "name": "isMintEnabled",
            "outputs": [
                {
                    "internalType": "bool",
                    "name": "",
                    "type": "bool"
                }
            ],
            "stateMutability": "view",
            "type": "function"
        },
        {
            "inputs": [],
            "name": "maxSupply",
            "outputs": [
                {
                    "internalType": "uint256",
                    "name": "",
                    "type": "uint256"
                }
            ],
            "stateMutability": "view",
            "type": "function"
        },
        {
            "inputs": [
                {
                    "internalType": "uint256",
                    "name": "quantity",
                    "type": "uint256"
                }
            ],
            "name": "mint",
            "outputs": [],
            "stateMutability": "payable",
            "type": "function"
        },
        {
            "inputs": [],
            "name": "mintLimit",
            "outputs": [
                {
                    "internalType": "uint256",
                    "name": "",
                    "type": "uint256"
                }
            ],
            "stateMutability": "view",
            "type": "function"
        },
        {
            "inputs": [],
            "name": "mintPrice",
            "outputs": [
                {
                    "internalType": "uint256",
                    "name": "",
                    "type": "uint256"
                }
            ],
            "stateMutability": "view",
            "type": "function"
        },
        {
            "inputs": [
                {
                    "internalType": "address",
                    "name": "",
                    "type": "address"
                }
            ],
            "name": "mintedWallets",
            "outputs": [
                {
                    "internalType": "uint256",
                    "name": "",
                    "type": "uint256"
                }
            ],
            "stateMutability": "view",
            "type": "function"
        },
        {
            "inputs": [],
            "name": "name",
            "outputs": [
                {
                    "internalType": "string",
                    "name": "",
                    "type": "string"
                }
            ],
            "stateMutability": "view",
            "type": "function"
        },
        {
            "inputs": [],
            "name": "owner",
            "outputs": [
                {
                    "internalType": "address",
                    "name": "",
                    "type": "address"
                }
            ],
            "stateMutability": "view",
            "type": "function"
        },
        {
            "inputs": [
                {
                    "internalType": "uint256",
                    "name": "tokenId",
                    "type": "uint256"
                }
            ],
            "name": "ownerOf",
            "outputs": [
                {
                    "internalType": "address",
                    "name": "",
                    "type": "address"
                }
            ],
            "stateMutability": "view",
            "type": "function"
        },
        {
            "inputs": [],
            "name": "renounceOwnership",
            "outputs": [],
            "stateMutability": "nonpayable",
            "type": "function"
        },
        {
            "inputs": [
                {
                    "internalType": "address",
                    "name": "from",
                    "type": "address"
                },
                {
                    "internalType": "address",
                    "name": "to",
                    "type": "address"
                },
                {
                    "internalType": "uint256",
                    "name": "tokenId",
                    "type": "uint256"
                }
            ],
            "name": "safeTransferFrom",
            "outputs": [],
            "stateMutability": "nonpayable",
            "type": "function"
        },
        {
            "inputs": [
                {
                    "internalType": "address",
                    "name": "from",
                    "type": "address"
                },
                {
                    "internalType": "address",
                    "name": "to",
                    "type": "address"
                },
                {
                    "internalType": "uint256",
                    "name": "tokenId",
                    "type": "uint256"
                },
                {
                    "internalType": "bytes",
                    "name": "data",
                    "type": "bytes"
                }
            ],
            "name": "safeTransferFrom",
            "outputs": [],
            "stateMutability": "nonpayable",
            "type": "function"
        },
        {
            "inputs": [
                {
                    "internalType": "address",
                    "name": "operator",
                    "type": "address"
                },
                {
                    "internalType": "bool",
                    "name": "approved",
                    "type": "bool"
                }
            ],
            "name": "setApprovalForAll",
            "outputs": [],
            "stateMutability": "nonpayable",
            "type": "function"
        },
        {
            "inputs": [
                {
                    "internalType": "string",
                    "name": "uri",
                    "type": "string"
                }
            ],
            "name": "setBaseTokenUri",
            "outputs": [],
            "stateMutability": "nonpayable",
            "type": "function"
        },
        {
            "inputs": [
                {
                    "internalType": "uint256",
                    "name": "supply",
                    "type": "uint256"
                }
            ],
            "name": "setMaxSupply",
            "outputs": [],
            "stateMutability": "nonpayable",
            "type": "function"
        },
        {
            "inputs": [
                {
                    "internalType": "uint256",
                    "name": "limit",
                    "type": "uint256"
                }
            ],
            "name": "setMintLimit",
            "outputs": [],
            "stateMutability": "nonpayable",
            "type": "function"
        },
        {
            "inputs": [
                {
                    "internalType": "address payable",
                    "name": "newAddress",
                    "type": "address"
                }
            ],
            "name": "setWithdrawalWallet",
            "outputs": [
                {
                    "internalType": "bool",
                    "name": "success",
                    "type": "bool"
                }
            ],
            "stateMutability": "nonpayable",
            "type": "function"
        },
        {
            "inputs": [
                {
                    "internalType": "bytes4",
                    "name": "interfaceId",
                    "type": "bytes4"
                }
            ],
            "name": "supportsInterface",
            "outputs": [
                {
                    "internalType": "bool",
                    "name": "",
                    "type": "bool"
                }
            ],
            "stateMutability": "view",
            "type": "function"
        },
        {
            "inputs": [],
            "name": "symbol",
            "outputs": [
                {
                    "internalType": "string",
                    "name": "",
                    "type": "string"
                }
            ],
            "stateMutability": "view",
            "type": "function"
        },
        {
            "inputs": [],
            "name": "toggleIsMintEnabled",
            "outputs": [],
            "stateMutability": "nonpayable",
            "type": "function"
        },
        {
            "inputs": [
                {
                    "internalType": "uint256",
                    "name": "tokenId",
                    "type": "uint256"
                }
            ],
            "name": "tokenURI",
            "outputs": [
                {
                    "internalType": "string",
                    "name": "",
                    "type": "string"
                }
            ],
            "stateMutability": "view",
            "type": "function"
        },
        {
            "inputs": [],
            "name": "totalSupply",
            "outputs": [
                {
                    "internalType": "uint256",
                    "name": "",
                    "type": "uint256"
                }
            ],
            "stateMutability": "view",
            "type": "function"
        },
        {
            "inputs": [
                {
                    "internalType": "address",
                    "name": "from",
                    "type": "address"
                },
                {
                    "internalType": "address",
                    "name": "to",
                    "type": "address"
                },
                {
                    "internalType": "uint256",
                    "name": "tokenId",
                    "type": "uint256"
                }
            ],
            "name": "transferFrom",
            "outputs": [],
            "stateMutability": "nonpayable",
            "type": "function"
        },
        {
            "inputs": [
                {
                    "internalType": "address",
                    "name": "newOwner",
                    "type": "address"
                }
            ],
            "name": "transferOwnership",
            "outputs": [],
            "stateMutability": "nonpayable",
            "type": "function"
        },
        {
            "inputs": [],
            "name": "withdraw",
            "outputs": [],
            "stateMutability": "nonpayable",
            "type": "function"
        }
    ],
    "bytecode": "0x608060405260405162003d2738038062003d278339818101604052810190620000299190620002e5565b6040518060400160405280600f81526020017f466c6f6174696e672053617475726e00000000000000000000000000000000008152506040518060400160405280600481526020017f4654534e000000000000000000000000000000000000000000000000000000008152508160009080519060200190620000ad9291906200021e565b508060019080519060200190620000c69291906200021e565b505050620000e9620000dd6200015060201b60201c565b6200015860201b60201c565b6003600a8190555066b1a2bc2ec500006007819055506101f460098190555080600d60006101000a81548173ffffffffffffffffffffffffffffffffffffffff021916908373ffffffffffffffffffffffffffffffffffffffff16021790555050620003c4565b600033905090565b6000600660009054906101000a900473ffffffffffffffffffffffffffffffffffffffff16905081600660006101000a81548173ffffffffffffffffffffffffffffffffffffffff021916908373ffffffffffffffffffffffffffffffffffffffff1602179055508173ffffffffffffffffffffffffffffffffffffffff168173ffffffffffffffffffffffffffffffffffffffff167f8be0079c531659141344cd1fd0a4f28419497f9722a3daafe3b4186f6b6457e060405160405180910390a35050565b8280546200022c9062000345565b90600052602060002090601f0160209004810192826200025057600085556200029c565b82601f106200026b57805160ff19168380011785556200029c565b828001600101855582156200029c579182015b828111156200029b5782518255916020019190600101906200027e565b5b509050620002ab9190620002af565b5090565b5b80821115620002ca576000816000905550600101620002b0565b5090565b600081519050620002df81620003aa565b92915050565b600060208284031215620002f857600080fd5b60006200030884828501620002ce565b91505092915050565b60006200031e8262000325565b9050919050565b600073ffffffffffffffffffffffffffffffffffffffff82169050919050565b600060028204905060018216806200035e57607f821691505b602082108114156200037557620003746200037b565b5b50919050565b7f4e487b7100000000000000000000000000000000000000000000000000000000600052602260045260246000fd5b620003b58162000311565b8114620003c157600080fd5b50565b61395380620003d46000396000f3fe6080604052600436106101c25760003560e01c806375796f76116100f7578063a22cb46511610095578063c87b56dd11610064578063c87b56dd1461060b578063d5abeb0114610648578063e985e9c514610673578063f2fde38b146106b0576101c2565b8063a22cb46514610565578063ada7c4ed1461058e578063b88d4fde146105cb578063c4073217146105f4576101c2565b806395d89b41116100d157806395d89b41146104ca578063996517cf146104f55780639e6a1d7d14610520578063a0712d6814610549576101c2565b806375796f76146104395780638da5cb5b1461047657806395652cfa146104a1576101c2565b80633ccfd60b116101645780636817c76c1161013e5780636817c76c146103915780636f8b44b0146103bc57806370a08231146103e5578063715018a614610422576101c2565b80633ccfd60b1461031457806342842e0e1461032b5780636352211e14610354576101c2565b8063095ea7b3116101a0578063095ea7b31461026c57806318160ddd1461029557806323b872dd146102c0578063346de50a146102e9576101c2565b806301ffc9a7146101c757806306fdde0314610204578063081812fc1461022f575b600080fd5b3480156101d357600080fd5b506101ee60048036038101906101e991906127d7565b6106d9565b6040516101fb9190612d93565b60405180910390f35b34801561021057600080fd5b506102196107bb565b6040516102269190612dae565b60405180910390f35b34801561023b57600080fd5b506102566004803603810190610251919061286e565b61084d565b6040516102639190612d2c565b60405180910390f35b34801561027857600080fd5b50610293600480360381019061028e919061279b565b610893565b005b3480156102a157600080fd5b506102aa6109ab565b6040516102b79190613050565b60405180910390f35b3480156102cc57600080fd5b506102e760048036038101906102e29190612695565b6109b1565b005b3480156102f557600080fd5b506102fe610a11565b60405161030b9190612d93565b60405180910390f35b34801561032057600080fd5b50610329610a24565b005b34801561033757600080fd5b50610352600480360381019061034d9190612695565b610afd565b005b34801561036057600080fd5b5061037b6004803603810190610376919061286e565b610b1d565b6040516103889190612d2c565b60405180910390f35b34801561039d57600080fd5b506103a6610ba4565b6040516103b39190613050565b60405180910390f35b3480156103c857600080fd5b506103e360048036038101906103de919061286e565b610baa565b005b3480156103f157600080fd5b5061040c60048036038101906104079190612607565b610c00565b6040516104199190613050565b60405180910390f35b34801561042e57600080fd5b50610437610cb8565b005b34801561044557600080fd5b50610460600480360381019061045b9190612630565b610ccc565b60405161046d9190612d93565b60405180910390f35b34801561048257600080fd5b5061048b610d20565b6040516104989190612d2c565b60405180910390f35b3480156104ad57600080fd5b506104c860048036038101906104c39190612829565b610d4a565b005b3480156104d657600080fd5b506104df610d68565b6040516104ec9190612dae565b60405180910390f35b34801561050157600080fd5b5061050a610dfa565b6040516105179190613050565b60405180910390f35b34801561052c57600080fd5b506105476004803603810190610542919061286e565b610e00565b005b610563600480360381019061055e919061286e565b610e56565b005b34801561057157600080fd5b5061058c6004803603810190610587919061275f565b611081565b005b34801561059a57600080fd5b506105b560048036038101906105b09190612607565b611097565b6040516105c29190613050565b60405180910390f35b3480156105d757600080fd5b506105f260048036038101906105ed91906126e4565b6110af565b005b34801561060057600080fd5b50610609611111565b005b34801561061757600080fd5b50610632600480360381019061062d919061286e565b611145565b60405161063f9190612dae565b60405180910390f35b34801561065457600080fd5b5061065d6111ae565b60405161066a9190613050565b60405180910390f35b34801561067f57600080fd5b5061069a60048036038101906106959190612659565b6111b4565b6040516106a79190612d93565b60405180910390f35b3480156106bc57600080fd5b506106d760048036038101906106d29190612607565b611248565b005b60007f80ac58cd000000000000000000000000000000000000000000000000000000007bffffffffffffffffffffffffffffffffffffffffffffffffffffffff1916827bffffffffffffffffffffffffffffffffffffffffffffffffffffffff191614806107a457507f5b5e139f000000000000000000000000000000000000000000000000000000007bffffffffffffffffffffffffffffffffffffffffffffffffffffffff1916827bffffffffffffffffffffffffffffffffffffffffffffffffffffffff1916145b806107b457506107b3826112cc565b5b9050919050565b6060600080546107ca906132d0565b80601f01602080910402602001604051908101604052809291908181526020018280546107f6906132d0565b80156108435780601f1061081857610100808354040283529160200191610843565b820191906000526020600020905b81548152906001019060200180831161082657829003601f168201915b5050505050905090565b600061085882611336565b6004600083815260200190815260200160002060009054906101000a900473ffffffffffffffffffffffffffffffffffffffff169050919050565b600061089e82610b1d565b90508073ffffffffffffffffffffffffffffffffffffffff168373ffffffffffffffffffffffffffffffffffffffff16141561090f576040517f08c379a000000000000000000000000000000000000000000000000000000000815260040161090690612fd0565b60405180910390fd5b8073ffffffffffffffffffffffffffffffffffffffff1661092e611381565b73ffffffffffffffffffffffffffffffffffffffff16148061095d575061095c81610957611381565b6111b4565b5b61099c576040517f08c379a000000000000000000000000000000000000000000000000000000000815260040161099390612ff0565b60405180910390fd5b6109a68383611389565b505050565b60085481565b6109c26109bc611381565b82611442565b610a01576040517f08c379a00000000000000000000000000000000000000000000000000000000081526004016109f890612df0565b60405180910390fd5b610a0c8383836114d7565b505050565b600b60009054906101000a900460ff1681565b610a2c6117d1565b6000600d60009054906101000a900473ffffffffffffffffffffffffffffffffffffffff1673ffffffffffffffffffffffffffffffffffffffff1647604051610a7490612d17565b60006040518083038185875af1925050503d8060008114610ab1576040519150601f19603f3d011682016040523d82523d6000602084013e610ab6565b606091505b5050905080610afa576040517f08c379a0000000000000000000000000000000000000000000000000000000008152600401610af190612f30565b60405180910390fd5b50565b610b18838383604051806020016040528060008152506110af565b505050565b600080610b298361184f565b9050600073ffffffffffffffffffffffffffffffffffffffff168173ffffffffffffffffffffffffffffffffffffffff161415610b9b576040517f08c379a0000000000000000000000000000000000000000000000000000000008152600401610b9290612fb0565b60405180910390fd5b80915050919050565b60075481565b610bb26117d1565b6008548111610bf6576040517f08c379a0000000000000000000000000000000000000000000000000000000008152600401610bed90612ef0565b60405180910390fd5b8060098190555050565b60008073ffffffffffffffffffffffffffffffffffffffff168273ffffffffffffffffffffffffffffffffffffffff161415610c71576040517f08c379a0000000000000000000000000000000000000000000000000000000008152600401610c6890612f50565b60405180910390fd5b600360008373ffffffffffffffffffffffffffffffffffffffff1673ffffffffffffffffffffffffffffffffffffffff168152602001908152602001600020549050919050565b610cc06117d1565b610cca600061188c565b565b6000610cd66117d1565b81600d60006101000a81548173ffffffffffffffffffffffffffffffffffffffff021916908373ffffffffffffffffffffffffffffffffffffffff16021790555060019050919050565b6000600660009054906101000a900473ffffffffffffffffffffffffffffffffffffffff16905090565b610d526117d1565b8181600c9190610d63929190612434565b505050565b606060018054610d77906132d0565b80601f0160208091040260200160405190810160405280929190818152602001828054610da3906132d0565b8015610df05780601f10610dc557610100808354040283529160200191610df0565b820191906000526020600020905b815481529060010190602001808311610dd357829003601f168201915b5050505050905090565b600a5481565b610e086117d1565b600a548111610e4c576040517f08c379a0000000000000000000000000000000000000000000000000000000008152600401610e4390612e30565b60405180910390fd5b80600a8190555050565b600a5481600e60003373ffffffffffffffffffffffffffffffffffffffff1673ffffffffffffffffffffffffffffffffffffffff16815260200190815260200160002054610ea49190613124565b10610ee4576040517f08c379a0000000000000000000000000000000000000000000000000000000008152600401610edb90612f10565b60405180910390fd5b60095481600854610ef59190613124565b10610f35576040517f08c379a0000000000000000000000000000000000000000000000000000000008152600401610f2c90613010565b60405180910390fd5b600b60009054906101000a900460ff16610f84576040517f08c379a0000000000000000000000000000000000000000000000000000000008152600401610f7b90612dd0565b60405180910390fd5b80600754610f92919061317a565b3414610fd3576040517f08c379a0000000000000000000000000000000000000000000000000000000008152600401610fca90613030565b60405180910390fd5b80600e60003373ffffffffffffffffffffffffffffffffffffffff1673ffffffffffffffffffffffffffffffffffffffff16815260200190815260200160002060008282546110229190613124565b92505081905550806008600082825461103b9190613124565b925050819055506000600190505b600854811161107d5761105b81611952565b61106a576110693382611993565b5b808061107590613333565b915050611049565b5050565b61109361108c611381565b83836119b1565b5050565b600e6020528060005260406000206000915090505481565b6110c06110ba611381565b83611442565b6110ff576040517f08c379a00000000000000000000000000000000000000000000000000000000081526004016110f690612df0565b60405180910390fd5b61110b84848484611b1e565b50505050565b6111196117d1565b600b60009054906101000a900460ff1615600b60006101000a81548160ff021916908315150217905550565b606061115082611336565b6000600c805461115f906132d0565b90501161117b57604051806020016040528060008152506111a7565b600c61118683611b7a565b604051602001611197929190612ce8565b6040516020818303038152906040525b9050919050565b60095481565b6000600560008473ffffffffffffffffffffffffffffffffffffffff1673ffffffffffffffffffffffffffffffffffffffff16815260200190815260200160002060008373ffffffffffffffffffffffffffffffffffffffff1673ffffffffffffffffffffffffffffffffffffffff16815260200190815260200160002060009054906101000a900460ff16905092915050565b6112506117d1565b600073ffffffffffffffffffffffffffffffffffffffff168173ffffffffffffffffffffffffffffffffffffffff1614156112c0576040517f08c379a00000000000000000000000000000000000000000000000000000000081526004016112b790612e50565b60405180910390fd5b6112c98161188c565b50565b60007f01ffc9a7000000000000000000000000000000000000000000000000000000007bffffffffffffffffffffffffffffffffffffffffffffffffffffffff1916827bffffffffffffffffffffffffffffffffffffffffffffffffffffffff1916149050919050565b61133f81611952565b61137e576040517f08c379a000000000000000000000000000000000000000000000000000000000815260040161137590612fb0565b60405180910390fd5b50565b600033905090565b816004600083815260200190815260200160002060006101000a81548173ffffffffffffffffffffffffffffffffffffffff021916908373ffffffffffffffffffffffffffffffffffffffff160217905550808273ffffffffffffffffffffffffffffffffffffffff166113fc83610b1d565b73ffffffffffffffffffffffffffffffffffffffff167f8c5be1e5ebec7d5bd14f71427d1e84f3dd0314c0f7b2291e5b200ac8c7c3b92560405160405180910390a45050565b60008061144e83610b1d565b90508073ffffffffffffffffffffffffffffffffffffffff168473ffffffffffffffffffffffffffffffffffffffff161480611490575061148f81856111b4565b5b806114ce57508373ffffffffffffffffffffffffffffffffffffffff166114b68461084d565b73ffffffffffffffffffffffffffffffffffffffff16145b91505092915050565b8273ffffffffffffffffffffffffffffffffffffffff166114f782610b1d565b73ffffffffffffffffffffffffffffffffffffffff161461154d576040517f08c379a000000000000000000000000000000000000000000000000000000000815260040161154490612e70565b60405180910390fd5b600073ffffffffffffffffffffffffffffffffffffffff168273ffffffffffffffffffffffffffffffffffffffff1614156115bd576040517f08c379a00000000000000000000000000000000000000000000000000000000081526004016115b490612eb0565b60405180910390fd5b6115ca8383836001611c9e565b8273ffffffffffffffffffffffffffffffffffffffff166115ea82610b1d565b73ffffffffffffffffffffffffffffffffffffffff1614611640576040517f08c379a000000000000000000000000000000000000000000000000000000000815260040161163790612e70565b60405180910390fd5b6004600082815260200190815260200160002060006101000a81549073ffffffffffffffffffffffffffffffffffffffff02191690556001600360008573ffffffffffffffffffffffffffffffffffffffff1673ffffffffffffffffffffffffffffffffffffffff168152602001908152602001600020600082825403925050819055506001600360008473ffffffffffffffffffffffffffffffffffffffff1673ffffffffffffffffffffffffffffffffffffffff16815260200190815260200160002060008282540192505081905550816002600083815260200190815260200160002060006101000a81548173ffffffffffffffffffffffffffffffffffffffff021916908373ffffffffffffffffffffffffffffffffffffffff160217905550808273ffffffffffffffffffffffffffffffffffffffff168473ffffffffffffffffffffffffffffffffffffffff167fddf252ad1be2c89b69c2b068fc378daa952ba7f163c4a11628f55a4df523b3ef60405160405180910390a46117cc8383836001611dc4565b505050565b6117d9611381565b73ffffffffffffffffffffffffffffffffffffffff166117f7610d20565b73ffffffffffffffffffffffffffffffffffffffff161461184d576040517f08c379a000000000000000000000000000000000000000000000000000000000815260040161184490612f90565b60405180910390fd5b565b60006002600083815260200190815260200160002060009054906101000a900473ffffffffffffffffffffffffffffffffffffffff169050919050565b6000600660009054906101000a900473ffffffffffffffffffffffffffffffffffffffff16905081600660006101000a81548173ffffffffffffffffffffffffffffffffffffffff021916908373ffffffffffffffffffffffffffffffffffffffff1602179055508173ffffffffffffffffffffffffffffffffffffffff168173ffffffffffffffffffffffffffffffffffffffff167f8be0079c531659141344cd1fd0a4f28419497f9722a3daafe3b4186f6b6457e060405160405180910390a35050565b60008073ffffffffffffffffffffffffffffffffffffffff166119748361184f565b73ffffffffffffffffffffffffffffffffffffffff1614159050919050565b6119ad828260405180602001604052806000815250611dca565b5050565b8173ffffffffffffffffffffffffffffffffffffffff168373ffffffffffffffffffffffffffffffffffffffff161415611a20576040517f08c379a0000000000000000000000000000000000000000000000000000000008152600401611a1790612ed0565b60405180910390fd5b80600560008573ffffffffffffffffffffffffffffffffffffffff1673ffffffffffffffffffffffffffffffffffffffff16815260200190815260200160002060008473ffffffffffffffffffffffffffffffffffffffff1673ffffffffffffffffffffffffffffffffffffffff16815260200190815260200160002060006101000a81548160ff0219169083151502179055508173ffffffffffffffffffffffffffffffffffffffff168373ffffffffffffffffffffffffffffffffffffffff167f17307eab39ab6107e8899845ad3d59bd9653f200f220920489ca2b5937696c3183604051611b119190612d93565b60405180910390a3505050565b611b298484846114d7565b611b3584848484611e25565b611b74576040517f08c379a0000000000000000000000000000000000000000000000000000000008152600401611b6b90612e10565b60405180910390fd5b50505050565b606060006001611b8984611fbc565b01905060008167ffffffffffffffff811115611bce577f4e487b7100000000000000000000000000000000000000000000000000000000600052604160045260246000fd5b6040519080825280601f01601f191660200182016040528015611c005781602001600182028036833780820191505090505b509050600082602001820190505b600115611c93578080600190039150507f3031323334353637383961626364656600000000000000000000000000000000600a86061a8153600a8581611c7d577f4e487b7100000000000000000000000000000000000000000000000000000000600052601260045260246000fd5b0494506000851415611c8e57611c93565b611c0e565b819350505050919050565b6001811115611dbe57600073ffffffffffffffffffffffffffffffffffffffff168473ffffffffffffffffffffffffffffffffffffffff1614611d325780600360008673ffffffffffffffffffffffffffffffffffffffff1673ffffffffffffffffffffffffffffffffffffffff1681526020019081526020016000206000828254611d2a91906131d4565b925050819055505b600073ffffffffffffffffffffffffffffffffffffffff168373ffffffffffffffffffffffffffffffffffffffff1614611dbd5780600360008573ffffffffffffffffffffffffffffffffffffffff1673ffffffffffffffffffffffffffffffffffffffff1681526020019081526020016000206000828254611db59190613124565b925050819055505b5b50505050565b50505050565b611dd483836121f3565b611de16000848484611e25565b611e20576040517f08c379a0000000000000000000000000000000000000000000000000000000008152600401611e1790612e10565b60405180910390fd5b505050565b6000611e468473ffffffffffffffffffffffffffffffffffffffff16612411565b15611faf578373ffffffffffffffffffffffffffffffffffffffff1663150b7a02611e6f611381565b8786866040518563ffffffff1660e01b8152600401611e919493929190612d47565b602060405180830381600087803b158015611eab57600080fd5b505af1925050508015611edc57506040513d601f19601f82011682018060405250810190611ed99190612800565b60015b611f5f573d8060008114611f0c576040519150601f19603f3d011682016040523d82523d6000602084013e611f11565b606091505b50600081511415611f57576040517f08c379a0000000000000000000000000000000000000000000000000000000008152600401611f4e90612e10565b60405180910390fd5b805181602001fd5b63150b7a0260e01b7bffffffffffffffffffffffffffffffffffffffffffffffffffffffff1916817bffffffffffffffffffffffffffffffffffffffffffffffffffffffff191614915050611fb4565b600190505b949350505050565b600080600090507a184f03e93ff9f4daa797ed6e38ed64bf6a1f0100000000000000008310612040577a184f03e93ff9f4daa797ed6e38ed64bf6a1f0100000000000000008381612036577f4e487b7100000000000000000000000000000000000000000000000000000000600052601260045260246000fd5b0492506040810190505b6d04ee2d6d415b85acef810000000083106120a3576d04ee2d6d415b85acef81000000008381612099577f4e487b7100000000000000000000000000000000000000000000000000000000600052601260045260246000fd5b0492506020810190505b662386f26fc1000083106120f857662386f26fc1000083816120ee577f4e487b7100000000000000000000000000000000000000000000000000000000600052601260045260246000fd5b0492506010810190505b6305f5e1008310612147576305f5e100838161213d577f4e487b7100000000000000000000000000000000000000000000000000000000600052601260045260246000fd5b0492506008810190505b6127108310612192576127108381612188577f4e487b7100000000000000000000000000000000000000000000000000000000600052601260045260246000fd5b0492506004810190505b606483106121db57606483816121d1577f4e487b7100000000000000000000000000000000000000000000000000000000600052601260045260246000fd5b0492506002810190505b600a83106121ea576001810190505b80915050919050565b600073ffffffffffffffffffffffffffffffffffffffff168273ffffffffffffffffffffffffffffffffffffffff161415612263576040517f08c379a000000000000000000000000000000000000000000000000000000000815260040161225a90612f70565b60405180910390fd5b61226c81611952565b156122ac576040517f08c379a00000000000000000000000000000000000000000000000000000000081526004016122a390612e90565b60405180910390fd5b6122ba600083836001611c9e565b6122c381611952565b15612303576040517f08c379a00000000000000000000000000000000000000000000000000000000081526004016122fa90612e90565b60405180910390fd5b6001600360008473ffffffffffffffffffffffffffffffffffffffff1673ffffffffffffffffffffffffffffffffffffffff16815260200190815260200160002060008282540192505081905550816002600083815260200190815260200160002060006101000a81548173ffffffffffffffffffffffffffffffffffffffff021916908373ffffffffffffffffffffffffffffffffffffffff160217905550808273ffffffffffffffffffffffffffffffffffffffff16600073ffffffffffffffffffffffffffffffffffffffff167fddf252ad1be2c89b69c2b068fc378daa952ba7f163c4a11628f55a4df523b3ef60405160405180910390a461240d600083836001611dc4565b5050565b6000808273ffffffffffffffffffffffffffffffffffffffff163b119050919050565b828054612440906132d0565b90600052602060002090601f01602090048101928261246257600085556124a9565b82601f1061247b57803560ff19168380011785556124a9565b828001600101855582156124a9579182015b828111156124a857823582559160200191906001019061248d565b5b5090506124b691906124ba565b5090565b5b808211156124d35760008160009055506001016124bb565b5090565b60006124ea6124e584613090565b61306b565b90508281526020810184848401111561250257600080fd5b61250d84828561328e565b509392505050565b600081359050612524816138aa565b92915050565b600081359050612539816138c1565b92915050565b60008135905061254e816138d8565b92915050565b600081359050612563816138ef565b92915050565b600081519050612578816138ef565b92915050565b600082601f83011261258f57600080fd5b813561259f8482602086016124d7565b91505092915050565b60008083601f8401126125ba57600080fd5b8235905067ffffffffffffffff8111156125d357600080fd5b6020830191508360018202830111156125eb57600080fd5b9250929050565b60008135905061260181613906565b92915050565b60006020828403121561261957600080fd5b600061262784828501612515565b91505092915050565b60006020828403121561264257600080fd5b60006126508482850161252a565b91505092915050565b6000806040838503121561266c57600080fd5b600061267a85828601612515565b925050602061268b85828601612515565b9150509250929050565b6000806000606084860312156126aa57600080fd5b60006126b886828701612515565b93505060206126c986828701612515565b92505060406126da868287016125f2565b9150509250925092565b600080600080608085870312156126fa57600080fd5b600061270887828801612515565b945050602061271987828801612515565b935050604061272a878288016125f2565b925050606085013567ffffffffffffffff81111561274757600080fd5b6127538782880161257e565b91505092959194509250565b6000806040838503121561277257600080fd5b600061278085828601612515565b92505060206127918582860161253f565b9150509250929050565b600080604083850312156127ae57600080fd5b60006127bc85828601612515565b92505060206127cd858286016125f2565b9150509250929050565b6000602082840312156127e957600080fd5b60006127f784828501612554565b91505092915050565b60006020828403121561281257600080fd5b600061282084828501612569565b91505092915050565b6000806020838503121561283c57600080fd5b600083013567ffffffffffffffff81111561285657600080fd5b612862858286016125a8565b92509250509250929050565b60006020828403121561288057600080fd5b600061288e848285016125f2565b91505092915050565b6128a081613208565b82525050565b6128af8161322c565b82525050565b60006128c0826130d6565b6128ca81856130ec565b93506128da81856020860161329d565b6128e381613409565b840191505092915050565b60006128f9826130e1565b6129038185613108565b935061291381856020860161329d565b61291c81613409565b840191505092915050565b6000612932826130e1565b61293c8185613119565b935061294c81856020860161329d565b80840191505092915050565b60008154612965816132d0565b61296f8186613119565b9450600182166000811461298a576001811461299b576129ce565b60ff198316865281860193506129ce565b6129a4856130c1565b60005b838110156129c6578154818901526001820191506020810190506129a7565b838801955050505b50505092915050565b60006129e4601483613108565b91506129ef8261341a565b602082019050919050565b6000612a07602d83613108565b9150612a1282613443565b604082019050919050565b6000612a2a603283613108565b9150612a3582613492565b604082019050919050565b6000612a4d601b83613108565b9150612a58826134e1565b602082019050919050565b6000612a70602683613108565b9150612a7b8261350a565b604082019050919050565b6000612a93602583613108565b9150612a9e82613559565b604082019050919050565b6000612ab6601c83613108565b9150612ac1826135a8565b602082019050919050565b6000612ad9602483613108565b9150612ae4826135d1565b604082019050919050565b6000612afc601983613108565b9150612b0782613620565b602082019050919050565b6000612b1f601c83613108565b9150612b2a82613649565b602082019050919050565b6000612b42601c83613108565b9150612b4d82613672565b602082019050919050565b6000612b65601283613108565b9150612b708261369b565b602082019050919050565b6000612b88602983613108565b9150612b93826136c4565b604082019050919050565b6000612bab602083613108565b9150612bb682613713565b602082019050919050565b6000612bce600583613119565b9150612bd98261373c565b600582019050919050565b6000612bf1602083613108565b9150612bfc82613765565b602082019050919050565b6000612c14601883613108565b9150612c1f8261378e565b602082019050919050565b6000612c37602183613108565b9150612c42826137b7565b604082019050919050565b6000612c5a6000836130fd565b9150612c6582613806565b600082019050919050565b6000612c7d603d83613108565b9150612c8882613809565b604082019050919050565b6000612ca0600883613108565b9150612cab82613858565b602082019050919050565b6000612cc3601783613108565b9150612cce82613881565b602082019050919050565b612ce281613284565b82525050565b6000612cf48285612958565b9150612d008284612927565b9150612d0b82612bc1565b91508190509392505050565b6000612d2282612c4d565b9150819050919050565b6000602082019050612d416000830184612897565b92915050565b6000608082019050612d5c6000830187612897565b612d696020830186612897565b612d766040830185612cd9565b8181036060830152612d8881846128b5565b905095945050505050565b6000602082019050612da860008301846128a6565b92915050565b60006020820190508181036000830152612dc881846128ee565b905092915050565b60006020820190508181036000830152612de9816129d7565b9050919050565b60006020820190508181036000830152612e09816129fa565b9050919050565b60006020820190508181036000830152612e2981612a1d565b9050919050565b60006020820190508181036000830152612e4981612a40565b9050919050565b60006020820190508181036000830152612e6981612a63565b9050919050565b60006020820190508181036000830152612e8981612a86565b9050919050565b60006020820190508181036000830152612ea981612aa9565b9050919050565b60006020820190508181036000830152612ec981612acc565b9050919050565b60006020820190508181036000830152612ee981612aef565b9050919050565b60006020820190508181036000830152612f0981612b12565b9050919050565b60006020820190508181036000830152612f2981612b35565b9050919050565b60006020820190508181036000830152612f4981612b58565b9050919050565b60006020820190508181036000830152612f6981612b7b565b9050919050565b60006020820190508181036000830152612f8981612b9e565b9050919050565b60006020820190508181036000830152612fa981612be4565b9050919050565b60006020820190508181036000830152612fc981612c07565b9050919050565b60006020820190508181036000830152612fe981612c2a565b9050919050565b6000602082019050818103600083015261300981612c70565b9050919050565b6000602082019050818103600083015261302981612c93565b9050919050565b6000602082019050818103600083015261304981612cb6565b9050919050565b60006020820190506130656000830184612cd9565b92915050565b6000613075613086565b90506130818282613302565b919050565b6000604051905090565b600067ffffffffffffffff8211156130ab576130aa6133da565b5b6130b482613409565b9050602081019050919050565b60008190508160005260206000209050919050565b600081519050919050565b600081519050919050565b600082825260208201905092915050565b600081905092915050565b600082825260208201905092915050565b600081905092915050565b600061312f82613284565b915061313a83613284565b9250827fffffffffffffffffffffffffffffffffffffffffffffffffffffffffffffffff0382111561316f5761316e61337c565b5b828201905092915050565b600061318582613284565b915061319083613284565b9250817fffffffffffffffffffffffffffffffffffffffffffffffffffffffffffffffff04831182151516156131c9576131c861337c565b5b828202905092915050565b60006131df82613284565b91506131ea83613284565b9250828210156131fd576131fc61337c565b5b828203905092915050565b600061321382613264565b9050919050565b600061322582613264565b9050919050565b60008115159050919050565b60007fffffffff0000000000000000000000000000000000000000000000000000000082169050919050565b600073ffffffffffffffffffffffffffffffffffffffff82169050919050565b6000819050919050565b82818337600083830152505050565b60005b838110156132bb5780820151818401526020810190506132a0565b838111156132ca576000848401525b50505050565b600060028204905060018216806132e857607f821691505b602082108114156132fc576132fb6133ab565b5b50919050565b61330b82613409565b810181811067ffffffffffffffff8211171561332a576133296133da565b5b80604052505050565b600061333e82613284565b91507fffffffffffffffffffffffffffffffffffffffffffffffffffffffffffffffff8214156133715761337061337c565b5b600182019050919050565b7f4e487b7100000000000000000000000000000000000000000000000000000000600052601160045260246000fd5b7f4e487b7100000000000000000000000000000000000000000000000000000000600052602260045260246000fd5b7f4e487b7100000000000000000000000000000000000000000000000000000000600052604160045260246000fd5b6000601f19601f8301169050919050565b7f4d696e74696e672069736e7420616c6c6f776564000000000000000000000000600082015250565b7f4552433732313a2063616c6c6572206973206e6f7420746f6b656e206f776e6560008201527f72206f7220617070726f76656400000000000000000000000000000000000000602082015250565b7f4552433732313a207472616e7366657220746f206e6f6e20455243373231526560008201527f63656976657220696d706c656d656e7465720000000000000000000000000000602082015250565b7f2043616e6e6f74206465637265617365206d696e74206c696d69740000000000600082015250565b7f4f776e61626c653a206e6577206f776e657220697320746865207a65726f206160008201527f6464726573730000000000000000000000000000000000000000000000000000602082015250565b7f4552433732313a207472616e736665722066726f6d20696e636f72726563742060008201527f6f776e6572000000000000000000000000000000000000000000000000000000602082015250565b7f4552433732313a20746f6b656e20616c7265616479206d696e74656400000000600082015250565b7f4552433732313a207472616e7366657220746f20746865207a65726f2061646460008201527f7265737300000000000000000000000000000000000000000000000000000000602082015250565b7f4552433732313a20617070726f766520746f2063616c6c657200000000000000600082015250565b7f43616e6e6f74206465637265616520746f74616c20737570706c792000000000600082015250565b7f2043616e6e6f7420657863656564206d696e74696e67206c696d697400000000600082015250565b7f205769746864726177616c204661696c65640000000000000000000000000000600082015250565b7f4552433732313a2061646472657373207a65726f206973206e6f74206120766160008201527f6c6964206f776e65720000000000000000000000000000000000000000000000602082015250565b7f4552433732313a206d696e7420746f20746865207a65726f2061646472657373600082015250565b7f2e6a736f6e000000000000000000000000000000000000000000000000000000600082015250565b7f4f776e61626c653a2063616c6c6572206973206e6f7420746865206f776e6572600082015250565b7f4552433732313a20696e76616c696420746f6b656e2049440000000000000000600082015250565b7f4552433732313a20617070726f76616c20746f2063757272656e74206f776e6560008201527f7200000000000000000000000000000000000000000000000000000000000000602082015250565b50565b7f4552433732313a20617070726f76652063616c6c6572206973206e6f7420746f60008201527f6b656e206f776e6572206f7220617070726f76656420666f7220616c6c000000602082015250565b7f536f6c64206f7574000000000000000000000000000000000000000000000000600082015250565b7f656e7465722074686520726967687420616d6f756e7420000000000000000000600082015250565b6138b381613208565b81146138be57600080fd5b50565b6138ca8161321a565b81146138d557600080fd5b50565b6138e18161322c565b81146138ec57600080fd5b50565b6138f881613238565b811461390357600080fd5b50565b61390f81613284565b811461391a57600080fd5b5056fea2646970667358221220bf6fb880067e3c5bdcc81526dff3d0a6a65883fcdf77446f52cb8cb590d6a47864736f6c63430008040033",
    "linkReferences": {},
    "deployedLinkReferences": {}
}